{
  "address": "0x3B1A08F74301563957F76ef5Cea2ea4A44C0372b",
  "abi": [
    {
      "inputs": [
        {
          "internalType": "address",
          "name": "_tokenAddress",
          "type": "address"
        },
        {
          "internalType": "address",
          "name": "_endpoint",
          "type": "address"
        }
      ],
      "stateMutability": "nonpayable",
      "type": "constructor"
    },
    {
      "inputs": [
        {
          "internalType": "address",
          "name": "target",
          "type": "address"
        }
      ],
      "name": "AddressEmptyCode",
      "type": "error"
    },
    {
      "inputs": [
        {
          "internalType": "address",
          "name": "account",
          "type": "address"
        }
      ],
      "name": "AddressInsufficientBalance",
      "type": "error"
    },
    {
      "inputs": [],
      "name": "FailedInnerCall",
      "type": "error"
    },
    {
      "inputs": [],
      "name": "InvalidDelegate",
      "type": "error"
    },
    {
      "inputs": [],
      "name": "InvalidEndpointCall",
      "type": "error"
    },
    {
      "inputs": [],
      "name": "LzTokenUnavailable",
      "type": "error"
    },
    {
      "inputs": [
        {
          "internalType": "uint32",
          "name": "eid",
          "type": "uint32"
        }
      ],
      "name": "NoPeer",
      "type": "error"
    },
    {
      "inputs": [
        {
          "internalType": "uint256",
          "name": "msgValue",
          "type": "uint256"
        }
      ],
      "name": "NotEnoughNative",
      "type": "error"
    },
    {
      "inputs": [
        {
          "internalType": "address",
          "name": "addr",
          "type": "address"
        }
      ],
      "name": "OnlyEndpoint",
      "type": "error"
    },
    {
      "inputs": [
        {
          "internalType": "uint32",
          "name": "eid",
          "type": "uint32"
        },
        {
          "internalType": "bytes32",
          "name": "sender",
          "type": "bytes32"
        }
      ],
      "name": "OnlyPeer",
      "type": "error"
    },
    {
      "inputs": [
        {
          "internalType": "address",
          "name": "owner",
          "type": "address"
        }
      ],
      "name": "OwnableInvalidOwner",
      "type": "error"
    },
    {
      "inputs": [
        {
          "internalType": "address",
          "name": "account",
          "type": "address"
        }
      ],
      "name": "OwnableUnauthorizedAccount",
      "type": "error"
    },
    {
      "inputs": [
        {
          "internalType": "address",
          "name": "token",
          "type": "address"
        }
      ],
      "name": "SafeERC20FailedOperation",
      "type": "error"
    },
    {
      "anonymous": false,
      "inputs": [
        {
          "indexed": false,
          "internalType": "uint256",
          "name": "amount",
          "type": "uint256"
        },
        {
          "indexed": true,
          "internalType": "address",
          "name": "receiver",
          "type": "address"
        },
        {
          "indexed": true,
          "internalType": "address",
          "name": "liquidityProvider",
          "type": "address"
        }
      ],
      "name": "BridgeCompleted",
      "type": "event"
    },
    {
      "anonymous": false,
      "inputs": [
        {
          "indexed": true,
          "internalType": "address",
          "name": "initiator",
          "type": "address"
        },
        {
          "indexed": false,
          "internalType": "uint256",
          "name": "amount",
          "type": "uint256"
        }
      ],
      "name": "BridgeInitiated",
      "type": "event"
    },
    {
      "anonymous": false,
      "inputs": [
        {
          "indexed": false,
          "internalType": "uint16",
          "name": "srcEid",
          "type": "uint16"
        },
        {
          "indexed": false,
          "internalType": "bool",
          "name": "isInitiate",
          "type": "bool"
        },
        {
          "indexed": false,
          "internalType": "uint256",
          "name": "amount",
          "type": "uint256"
        },
        {
          "indexed": false,
          "internalType": "address",
          "name": "destinationAddress",
          "type": "address"
        }
      ],
      "name": "CrossChainMessageReceived",
      "type": "event"
    },
    {
      "anonymous": false,
      "inputs": [
        {
          "indexed": true,
          "internalType": "address",
          "name": "provider",
          "type": "address"
        },
        {
          "indexed": false,
          "internalType": "uint256",
          "name": "amount",
          "type": "uint256"
        }
      ],
      "name": "LiquidityAdded",
      "type": "event"
    },
    {
      "anonymous": false,
      "inputs": [
        {
          "indexed": true,
          "internalType": "address",
          "name": "previousOwner",
          "type": "address"
        },
        {
          "indexed": true,
          "internalType": "address",
          "name": "newOwner",
          "type": "address"
        }
      ],
      "name": "OwnershipTransferred",
      "type": "event"
    },
    {
      "anonymous": false,
      "inputs": [
        {
          "indexed": false,
          "internalType": "uint32",
          "name": "eid",
          "type": "uint32"
        },
        {
          "indexed": false,
          "internalType": "bytes32",
          "name": "peer",
          "type": "bytes32"
        }
      ],
      "name": "PeerSet",
      "type": "event"
    },
    {
      "inputs": [
        {
          "internalType": "uint256",
          "name": "_amount",
          "type": "uint256"
        }
      ],
      "name": "addLiquidity",
      "outputs": [],
      "stateMutability": "nonpayable",
      "type": "function"
    },
    {
      "inputs": [
        {
          "components": [
            {
              "internalType": "uint32",
              "name": "srcEid",
              "type": "uint32"
            },
            {
              "internalType": "bytes32",
              "name": "sender",
              "type": "bytes32"
            },
            {
              "internalType": "uint64",
              "name": "nonce",
              "type": "uint64"
            }
          ],
          "internalType": "struct Origin",
          "name": "origin",
          "type": "tuple"
        }
      ],
      "name": "allowInitializePath",
      "outputs": [
        {
          "internalType": "bool",
          "name": "",
          "type": "bool"
        }
      ],
      "stateMutability": "view",
      "type": "function"
    },
    {
      "inputs": [
        {
          "internalType": "uint256",
          "name": "_amount",
          "type": "uint256"
        }
      ],
      "name": "bridgeTokens",
      "outputs": [],
      "stateMutability": "payable",
      "type": "function"
    },
    {
      "inputs": [],
      "name": "deposit",
      "outputs": [],
      "stateMutability": "payable",
      "type": "function"
    },
    {
      "inputs": [],
      "name": "destinationEndpointId",
      "outputs": [
        {
          "internalType": "uint32",
          "name": "",
          "type": "uint32"
        }
      ],
      "stateMutability": "view",
      "type": "function"
    },
    {
      "inputs": [],
      "name": "endpoint",
      "outputs": [
        {
          "internalType": "contract ILayerZeroEndpointV2",
          "name": "",
          "type": "address"
        }
      ],
      "stateMutability": "view",
      "type": "function"
    },
    {
      "inputs": [
        {
          "components": [
            {
              "internalType": "uint32",
              "name": "srcEid",
              "type": "uint32"
            },
            {
              "internalType": "bytes32",
              "name": "sender",
              "type": "bytes32"
            },
            {
              "internalType": "uint64",
              "name": "nonce",
              "type": "uint64"
            }
          ],
          "internalType": "struct Origin",
          "name": "",
          "type": "tuple"
        },
        {
          "internalType": "bytes",
          "name": "",
          "type": "bytes"
        },
        {
          "internalType": "address",
          "name": "_sender",
          "type": "address"
        }
      ],
      "name": "isComposeMsgSender",
      "outputs": [
        {
          "internalType": "bool",
          "name": "",
          "type": "bool"
        }
      ],
      "stateMutability": "view",
      "type": "function"
    },
    {
      "inputs": [
        {
          "internalType": "address",
          "name": "",
          "type": "address"
        }
      ],
      "name": "liquidityProviders",
      "outputs": [
        {
          "internalType": "uint256",
          "name": "",
          "type": "uint256"
        }
      ],
      "stateMutability": "view",
      "type": "function"
    },
    {
      "inputs": [
        {
          "internalType": "uint256",
          "name": "",
          "type": "uint256"
        }
      ],
      "name": "liquidityProvidersList",
      "outputs": [
        {
          "internalType": "address",
          "name": "",
          "type": "address"
        }
      ],
      "stateMutability": "view",
      "type": "function"
    },
    {
      "inputs": [
        {
          "components": [
            {
              "internalType": "uint32",
              "name": "srcEid",
              "type": "uint32"
            },
            {
              "internalType": "bytes32",
              "name": "sender",
              "type": "bytes32"
            },
            {
              "internalType": "uint64",
              "name": "nonce",
              "type": "uint64"
            }
          ],
          "internalType": "struct Origin",
          "name": "_origin",
          "type": "tuple"
        },
        {
          "internalType": "bytes32",
          "name": "_guid",
          "type": "bytes32"
        },
        {
          "internalType": "bytes",
          "name": "_message",
          "type": "bytes"
        },
        {
          "internalType": "address",
          "name": "_executor",
          "type": "address"
        },
        {
          "internalType": "bytes",
          "name": "_extraData",
          "type": "bytes"
        }
      ],
      "name": "lzReceive",
      "outputs": [],
      "stateMutability": "payable",
      "type": "function"
    },
    {
      "inputs": [
        {
          "internalType": "uint32",
          "name": "",
          "type": "uint32"
        },
        {
          "internalType": "bytes32",
          "name": "",
          "type": "bytes32"
        }
      ],
      "name": "nextNonce",
      "outputs": [
        {
          "internalType": "uint64",
          "name": "nonce",
          "type": "uint64"
        }
      ],
      "stateMutability": "view",
      "type": "function"
    },
    {
      "inputs": [],
      "name": "oAppVersion",
      "outputs": [
        {
          "internalType": "uint64",
          "name": "senderVersion",
          "type": "uint64"
        },
        {
          "internalType": "uint64",
          "name": "receiverVersion",
          "type": "uint64"
        }
      ],
      "stateMutability": "pure",
      "type": "function"
    },
    {
      "inputs": [
        {
          "internalType": "uint256",
          "name": "_amount",
          "type": "uint256"
        },
        {
          "internalType": "address",
          "name": "_liquidityProvider",
          "type": "address"
        }
      ],
      "name": "onBridgeCompleted",
      "outputs": [],
      "stateMutability": "nonpayable",
      "type": "function"
    },
    {
      "inputs": [
        {
          "internalType": "uint256",
          "name": "_amount",
          "type": "uint256"
        },
        {
          "internalType": "address",
          "name": "_receiver",
          "type": "address"
        }
      ],
      "name": "onBridgeInitiated",
      "outputs": [],
      "stateMutability": "nonpayable",
      "type": "function"
    },
    {
      "inputs": [],
      "name": "options",
      "outputs": [
        {
          "internalType": "bytes",
          "name": "",
          "type": "bytes"
        }
      ],
      "stateMutability": "view",
      "type": "function"
    },
    {
      "inputs": [],
      "name": "owner",
      "outputs": [
        {
          "internalType": "address",
          "name": "",
          "type": "address"
        }
      ],
      "stateMutability": "view",
      "type": "function"
    },
    {
      "inputs": [
        {
          "internalType": "uint256",
          "name": "_amount",
          "type": "uint256"
        }
      ],
      "name": "ownerWithdraw",
      "outputs": [],
      "stateMutability": "nonpayable",
      "type": "function"
    },
    {
      "inputs": [
        {
          "internalType": "uint32",
          "name": "eid",
          "type": "uint32"
        }
      ],
      "name": "peers",
      "outputs": [
        {
          "internalType": "bytes32",
          "name": "peer",
          "type": "bytes32"
        }
      ],
      "stateMutability": "view",
      "type": "function"
    },
    {
      "inputs": [],
      "name": "renounceOwnership",
      "outputs": [],
      "stateMutability": "nonpayable",
      "type": "function"
    },
    {
      "inputs": [
        {
          "internalType": "address",
          "name": "_delegate",
          "type": "address"
        }
      ],
      "name": "setDelegate",
      "outputs": [],
      "stateMutability": "nonpayable",
      "type": "function"
    },
    {
      "inputs": [
        {
          "internalType": "bytes",
          "name": "_options",
          "type": "bytes"
        }
      ],
      "name": "setOptions",
      "outputs": [],
      "stateMutability": "nonpayable",
      "type": "function"
    },
    {
      "inputs": [
        {
          "internalType": "uint32",
          "name": "_eid",
          "type": "uint32"
        },
        {
          "internalType": "bytes32",
          "name": "_peer",
          "type": "bytes32"
        }
      ],
      "name": "setPeer",
      "outputs": [],
      "stateMutability": "nonpayable",
      "type": "function"
    },
    {
      "inputs": [],
      "name": "token",
      "outputs": [
        {
          "internalType": "contract IERC20",
          "name": "",
          "type": "address"
        }
      ],
      "stateMutability": "view",
      "type": "function"
    },
    {
      "inputs": [
        {
          "internalType": "address",
          "name": "newOwner",
          "type": "address"
        }
      ],
      "name": "transferOwnership",
      "outputs": [],
      "stateMutability": "nonpayable",
      "type": "function"
    }
  ],
  "transactionHash": "0x8737f9ca14c6833e603102843b05e9f4a21afdde86b96adac9ef8e43755a354f",
  "args": [
    "0x9aA40Cc99973d8407a2AE7B2237d26E615EcaFd2",
    "0x6EDCE65403992e310A62460808c4b910D972f10f"
  ],
  "numDeployments": 12,
  "solcInputHash": "b29c5a397cb1fdbef4ef4aa3f36efb3e",
  "bytecode": "0x60a06040526002805463ffffffff60a01b1916614ec160a11b1790553480156200002857600080fd5b5060405162002298380380620022988339810160408190526200004b91620001ab565b8033818180806200007657604051631e4fbdf760e01b81526000600482015260240160405180910390fd5b62000081816200013e565b506001600160a01b038083166080528116620000b057604051632d618d8160e21b815260040160405180910390fd5b60805160405163ca5eb5e160e01b81526001600160a01b0383811660048301529091169063ca5eb5e190602401600060405180830381600087803b158015620000f857600080fd5b505af11580156200010d573d6000803e3d6000fd5b5050600280546001600160a01b0319166001600160a01b03999099169890981790975550620001e395505050505050565b600080546001600160a01b038381166001600160a01b0319831681178455604051919092169283917f8be0079c531659141344cd1fd0a4f28419497f9722a3daafe3b4186f6b6457e09190a35050565b80516001600160a01b0381168114620001a657600080fd5b919050565b60008060408385031215620001bf57600080fd5b620001ca836200018e565b9150620001da602084016200018e565b90509250929050565b60805161207662000222600039600081816102240152818161054d01528181610fa5015281816114a9015281816115ad015261166401526120766000f3fe60806040526004361061014b5760003560e01c806382413eac116100b6578063d0e30db01161006f578063d0e30db01461018e578063dbd9426714610410578063f2fde38b1461043d578063f5984cff1461045d578063fc0c546a1461047d578063ff7bd03d1461049d57600080fd5b806382413eac146103185780638da5cb5b14610357578063a75babd814610375578063b002a2e014610395578063bb0b6a53146103b5578063ca5eb5e1146103f057600080fd5b80635e280f11116101085780635e280f1114610212578063651bdcdb1461025e578063698befc61461027e57806370e5a898146102b7578063715018a6146102ca5780637d25a05e146102df57600080fd5b80631069143a1461015057806313137d651461017b57806317442b701461019057806333f707d1146101b25780633400288b146101d257806351c6590a146101f2575b600080fd5b34801561015c57600080fd5b506101656104bd565b60405161017291906118ff565b60405180910390f35b61018e610189366004611988565b61054b565b005b34801561019c57600080fd5b5060408051600181526002602082015201610172565b3480156101be57600080fd5b5061018e6101cd366004611a28565b61060b565b3480156101de57600080fd5b5061018e6101ed366004611a5a565b6107a8565b3480156101fe57600080fd5b5061018e61020d366004611a28565b6107ba565b34801561021e57600080fd5b506102467f000000000000000000000000000000000000000000000000000000000000000081565b6040516001600160a01b039091168152602001610172565b34801561026a57600080fd5b5061018e610279366004611a84565b610a95565b34801561028a57600080fd5b506002546102a290600160a01b900463ffffffff1681565b60405163ffffffff9091168152602001610172565b61018e6102c5366004611a28565b610ac6565b3480156102d657600080fd5b5061018e610d2c565b3480156102eb57600080fd5b506102ff6102fa366004611a5a565b610d40565b60405167ffffffffffffffff9091168152602001610172565b34801561032457600080fd5b50610347610333366004611ab4565b6001600160a01b0381163014949350505050565b6040519015158152602001610172565b34801561036357600080fd5b506000546001600160a01b0316610246565b34801561038157600080fd5b50610246610390366004611a28565b610d49565b3480156103a157600080fd5b5061018e6103b0366004611a84565b610d73565b3480156103c157600080fd5b506103e26103d0366004611b1b565b60016020526000908152604090205481565b604051908152602001610172565b3480156103fc57600080fd5b5061018e61040b366004611b36565b610f7e565b34801561041c57600080fd5b506103e261042b366004611b36565b60046020526000908152604090205481565b34801561044957600080fd5b5061018e610458366004611b36565b611004565b34801561046957600080fd5b5061018e610478366004611b92565b611042565b34801561048957600080fd5b50600254610246906001600160a01b031681565b3480156104a957600080fd5b506103476104b8366004611c43565b611056565b600380546104ca90611c5f565b80601f01602080910402602001604051908101604052809291908181526020018280546104f690611c5f565b80156105435780601f1061051857610100808354040283529160200191610543565b820191906000526020600020905b81548152906001019060200180831161052657829003601f168201915b505050505081565b7f00000000000000000000000000000000000000000000000000000000000000006001600160a01b0316331461059b576040516391ac5e4f60e01b81523360048201526024015b60405180910390fd5b602087018035906105b5906105b0908a611b1b565b61108c565b146105f3576105c76020880188611b1b565b60405163309afaf360e21b815263ffffffff909116600482015260208801356024820152604401610592565b610602878787878787876110c8565b50505050505050565b61061361116a565b600081116106335760405162461bcd60e51b815260040161059290611c93565b6002546040516370a0823160e01b81523060048201526001600160a01b03909116906370a0823190602401602060405180830381865afa15801561067b573d6000803e3d6000fd5b505050506040513d601f19601f8201168201806040525081019061069f9190611cca565b8111156106ee5760405162461bcd60e51b815260206004820181905260248201527f496e73756666696369656e742062616c616e636520696e20636f6e74726163746044820152606401610592565b6002546000906001600160a01b031663a9059cbb6107146000546001600160a01b031690565b6040516001600160e01b031960e084901b1681526001600160a01b039091166004820152602481018590526044016020604051808303816000875af1158015610761573d6000803e3d6000fd5b505050506040513d601f19601f820116820180604052508101906107859190611cf1565b9050806107a45760405162461bcd60e51b815260040161059290611d0e565b5050565b6107b061116a565b6107a48282611197565b600081116107da5760405162461bcd60e51b815260040161059290611c93565b6002546040516370a0823160e01b815233600482015282916001600160a01b0316906370a0823190602401602060405180830381865afa158015610822573d6000803e3d6000fd5b505050506040513d601f19601f820116820180604052508101906108469190611cca565b101561088b5760405162461bcd60e51b8152602060048201526014602482015273496e73756666696369656e742062616c616e636560601b6044820152606401610592565b600254604051636eb1769f60e11b815233600482015230602482015282916001600160a01b03169063dd62ed3e90604401602060405180830381865afa1580156108d9573d6000803e3d6000fd5b505050506040513d601f19601f820116820180604052508101906108fd9190611cca565b10156109445760405162461bcd60e51b8152602060048201526016602482015275496e73756666696369656e7420616c6c6f77616e636560501b6044820152606401610592565b6002546040516323b872dd60e01b8152336004820152306024820152604481018390526000916001600160a01b0316906323b872dd906064016020604051808303816000875af115801561099c573d6000803e3d6000fd5b505050506040513d601f19601f820116820180604052508101906109c09190611cf1565b9050806109df5760405162461bcd60e51b815260040161059290611d0e565b336000908152600460205260408120549003610a3857600580546001810182556000919091527f036b6384b5eca791c62761152d0c79bb0604c104a5fb6f4eb0703f3154bb3db00180546001600160a01b031916331790555b3360009081526004602052604081208054849290610a57908490611d53565b909155505060405182815233907fc17cea59c2955cb181b03393209566960365771dbba9dc3d510180e7cb3120889060200160405180910390a25050565b6001600160a01b03811660009081526004602052604081208054849290610abd908490611d53565b90915550505050565b60008111610ae65760405162461bcd60e51b815260040161059290611c93565b6002546040516370a0823160e01b815233600482015282916001600160a01b0316906370a0823190602401602060405180830381865afa158015610b2e573d6000803e3d6000fd5b505050506040513d601f19601f82011682018060405250810190610b529190611cca565b1015610b975760405162461bcd60e51b8152602060048201526014602482015273496e73756666696369656e742062616c616e636560601b6044820152606401610592565b600254604051636eb1769f60e11b815233600482015230602482015282916001600160a01b03169063dd62ed3e90604401602060405180830381865afa158015610be5573d6000803e3d6000fd5b505050506040513d601f19601f82011682018060405250810190610c099190611cca565b1015610c505760405162461bcd60e51b8152602060048201526016602482015275496e73756666696369656e7420616c6c6f77616e636560501b6044820152606401610592565b6002546040516323b872dd60e01b8152336004820152306024820152604481018390526000916001600160a01b0316906323b872dd906064016020604051808303816000875af1158015610ca8573d6000803e3d6000fd5b505050506040513d601f19601f82011682018060405250810190610ccc9190611cf1565b905080610ceb5760405162461bcd60e51b815260040161059290611d0e565b60405182815233907f21e157559d2eafdf118a8e80fd3141bf3b4dcf0404582a0f3a70eaf50294349a9060200160405180910390a26107a4600183336111ec565b610d3461116a565b610d3e60006113b2565b565b60005b92915050565b60058181548110610d5957600080fd5b6000918252602090912001546001600160a01b0316905081565b60008211610d935760405162461bcd60e51b815260040161059290611c93565b6001600160a01b038116610de95760405162461bcd60e51b815260206004820152601860248201527f496e76616c6964207265636569766572206164647265737300000000000000006044820152606401610592565b6000610df483611402565b90506001600160a01b038116610e605760405162461bcd60e51b815260206004820152602b60248201527f4e6f206c69717569646974792070726f7669646572207769746820737566666960448201526a6369656e742066756e647360a81b6064820152608401610592565b6001600160a01b03811660009081526004602052604081208054859290610e88908490611d66565b909155505060025460405163a9059cbb60e01b81526001600160a01b038481166004830152602482018690529091169063a9059cbb906044016020604051808303816000875af1158015610ee0573d6000803e3d6000fd5b505050506040513d601f19601f82011682018060405250810190610f049190611cf1565b610f205760405162461bcd60e51b815260040161059290611d0e565b806001600160a01b0316826001600160a01b03167fbd337ec72066ed8cadd08af43f50070285372a7efeca68d55190321e3328ead285604051610f6591815260200190565b60405180910390a3610f79600084836111ec565b505050565b610f8661116a565b60405163ca5eb5e160e01b81526001600160a01b0382811660048301527f0000000000000000000000000000000000000000000000000000000000000000169063ca5eb5e190602401600060405180830381600087803b158015610fe957600080fd5b505af1158015610ffd573d6000803e3d6000fd5b5050505050565b61100c61116a565b6001600160a01b03811661103657604051631e4fbdf760e01b815260006004820152602401610592565b61103f816113b2565b50565b61104a61116a565b60036107a48282611dc7565b600060208201803590600190839061106e9086611b1b565b63ffffffff1681526020810191909152604001600020541492915050565b63ffffffff811660009081526001602052604081205480610d435760405163f6ff4fb760e01b815263ffffffff84166004820152602401610592565b600080806110d887890189611e87565b92509250925082156110f3576110ee8282610d73565b6110fd565b6110fd8282610a95565b7fc2a857572a9a00cffbd9fa05467b8cd1ed508e276c618823bbaab3131610c27161112b60208c018c611b1b565b6040805161ffff9092168252851515602083015281018490526001600160a01b038316606082015260800160405180910390a150505050505050505050565b6000546001600160a01b03163314610d3e5760405163118cdaa760e01b8152336004820152602401610592565b63ffffffff8216600081815260016020908152604091829020849055815192835282018390527f238399d427b947898edb290f5ff0f9109849b1c3ba196a42e35f00c50a54b98b910160405180910390a15050565b6040805184151560208201529081018390526001600160a01b0382166060820152600090608001604051602081830303815290604052905083156112ee576112e8600260149054906101000a900463ffffffff16826003805461124e90611c5f565b80601f016020809104026020016040519081016040528092919081815260200182805461127a90611c5f565b80156112c75780601f1061129c576101008083540402835291602001916112c7565b820191906000526020600020905b8154815290600101906020018083116112aa57829003601f168201915b50505050506040518060400160405280348152602001600081525033611476565b506113ac565b610ffd600260149054906101000a900463ffffffff16826003805461131290611c5f565b80601f016020809104026020016040519081016040528092919081815260200182805461133e90611c5f565b801561138b5780601f106113605761010080835404028352916020019161138b565b820191906000526020600020905b81548152906001019060200180831161136e57829003601f168201915b50505050506040518060400160405280348152602001600081525030611476565b50505050565b600080546001600160a01b038381166001600160a01b0319831681178455604051919092169283917f8be0079c531659141344cd1fd0a4f28419497f9722a3daafe3b4186f6b6457e09190a35050565b6000805b60055481101561146d5760006005828154811061142557611425611ec9565b60009182526020808320909101546001600160a01b03168083526004909152604090912054909150841161145a579392505050565b508061146581611edf565b915050611406565b50600092915050565b61147e611867565b600061148d8460000151611581565b6020850151909150156114a7576114a784602001516115a9565b7f00000000000000000000000000000000000000000000000000000000000000006001600160a01b0316632637a450826040518060a001604052808b63ffffffff1681526020016114f78c61108c565b81526020018a815260200189815260200160008960200151111515815250866040518463ffffffff1660e01b8152600401611533929190611ef8565b60806040518083038185885af1158015611551573d6000803e3d6000fd5b50505050506040513d601f19601f820116820180604052508101906115769190611f71565b979650505050505050565b60008134146115a5576040516304fb820960e51b8152346004820152602401610592565b5090565b60007f00000000000000000000000000000000000000000000000000000000000000006001600160a01b031663e4fe1d946040518163ffffffff1660e01b8152600401602060405180830381865afa158015611609573d6000803e3d6000fd5b505050506040513d601f19601f8201168201806040525081019061162d9190612007565b90506001600160a01b038116611656576040516329b99a9560e11b815260040160405180910390fd5b6040805133602482018190527f00000000000000000000000000000000000000000000000000000000000000006001600160a01b03818116604485015260648085018890528551808603909101815260849094019094526020830180516001600160e01b03166323b872dd60e01b1790526107a49385169286906113ac90859060006116e28383611730565b905080516000141580156117075750808060200190518101906117059190611cf1565b155b15610f7957604051635274afe760e01b81526001600160a01b0384166004820152602401610592565b606061173e83836000611745565b9392505050565b60608147101561176a5760405163cd78605960e01b8152306004820152602401610592565b600080856001600160a01b031684866040516117869190612024565b60006040518083038185875af1925050503d80600081146117c3576040519150601f19603f3d011682016040523d82523d6000602084013e6117c8565b606091505b50915091506117d88683836117e2565b9695505050505050565b6060826117f7576117f28261183e565b61173e565b815115801561180e57506001600160a01b0384163b155b1561183757604051639996b31560e01b81526001600160a01b0385166004820152602401610592565b508061173e565b80511561184e5780518082602001fd5b604051630a12f52160e11b815260040160405180910390fd5b604051806060016040528060008019168152602001600067ffffffffffffffff1681526020016118aa604051806040016040528060008152602001600081525090565b905290565b60005b838110156118ca5781810151838201526020016118b2565b50506000910152565b600081518084526118eb8160208601602086016118af565b601f01601f19169290920160200192915050565b60208152600061173e60208301846118d3565b60006060828403121561192457600080fd5b50919050565b60008083601f84011261193c57600080fd5b50813567ffffffffffffffff81111561195457600080fd5b60208301915083602082850101111561196c57600080fd5b9250929050565b6001600160a01b038116811461103f57600080fd5b600080600080600080600060e0888a0312156119a357600080fd5b6119ad8989611912565b965060608801359550608088013567ffffffffffffffff808211156119d157600080fd5b6119dd8b838c0161192a565b909750955060a08a013591506119f282611973565b90935060c08901359080821115611a0857600080fd5b50611a158a828b0161192a565b989b979a50959850939692959293505050565b600060208284031215611a3a57600080fd5b5035919050565b803563ffffffff81168114611a5557600080fd5b919050565b60008060408385031215611a6d57600080fd5b611a7683611a41565b946020939093013593505050565b60008060408385031215611a9757600080fd5b823591506020830135611aa981611973565b809150509250929050565b60008060008060a08587031215611aca57600080fd5b611ad48686611912565b9350606085013567ffffffffffffffff811115611af057600080fd5b611afc8782880161192a565b9094509250506080850135611b1081611973565b939692955090935050565b600060208284031215611b2d57600080fd5b61173e82611a41565b600060208284031215611b4857600080fd5b813561173e81611973565b634e487b7160e01b600052604160045260246000fd5b6040805190810167ffffffffffffffff81118282101715611b8c57611b8c611b53565b60405290565b600060208284031215611ba457600080fd5b813567ffffffffffffffff80821115611bbc57600080fd5b818401915084601f830112611bd057600080fd5b813581811115611be257611be2611b53565b604051601f8201601f19908116603f01168101908382118183101715611c0a57611c0a611b53565b81604052828152876020848701011115611c2357600080fd5b826020860160208301376000928101602001929092525095945050505050565b600060608284031215611c5557600080fd5b61173e8383611912565b600181811c90821680611c7357607f821691505b60208210810361192457634e487b7160e01b600052602260045260246000fd5b6020808252601d908201527f416d6f756e74206d7573742062652067726561746572207468616e2030000000604082015260600190565b600060208284031215611cdc57600080fd5b5051919050565b801515811461103f57600080fd5b600060208284031215611d0357600080fd5b815161173e81611ce3565b602080825260159082015274151bdad95b881d1c985b9cd9995c8819985a5b1959605a1b604082015260600190565b634e487b7160e01b600052601160045260246000fd5b80820180821115610d4357610d43611d3d565b81810381811115610d4357610d43611d3d565b601f821115610f7957600081815260208120601f850160051c81016020861015611da05750805b601f850160051c820191505b81811015611dbf57828155600101611dac565b505050505050565b815167ffffffffffffffff811115611de157611de1611b53565b611df581611def8454611c5f565b84611d79565b602080601f831160018114611e2a5760008415611e125750858301515b600019600386901b1c1916600185901b178555611dbf565b600085815260208120601f198616915b82811015611e5957888601518255948401946001909101908401611e3a565b5085821015611e775787850151600019600388901b60f8161c191681555b5050505050600190811b01905550565b600080600060608486031215611e9c57600080fd5b8335611ea781611ce3565b9250602084013591506040840135611ebe81611973565b809150509250925092565b634e487b7160e01b600052603260045260246000fd5b600060018201611ef157611ef1611d3d565b5060010190565b6040815263ffffffff8351166040820152602083015160608201526000604084015160a06080840152611f2e60e08401826118d3565b90506060850151603f198483030160a0850152611f4b82826118d3565b60809690960151151560c08501525050506001600160a01b039190911660209091015290565b60008183036080811215611f8457600080fd5b6040516060810167ffffffffffffffff8282108183111715611fa857611fa8611b53565b8160405285518352602086015191508082168214611fc557600080fd5b5060208201526040603f1983011215611fdd57600080fd5b611fe5611b69565b6040858101518252606090950151602082015293810193909352509092915050565b60006020828403121561201957600080fd5b815161173e81611973565b600082516120368184602087016118af565b919091019291505056fea2646970667358221220f3ba03bbf4c1b7213d3b5997aaee36a3b5329fba0a8614c6bc0dc9a5f388e1a164736f6c63430008140033",
  "devdoc": {
    "errors": {
      "AddressEmptyCode(address)": [
        {
          "details": "There's no code at `target` (it is not a contract)."
        }
      ],
      "AddressInsufficientBalance(address)": [
        {
          "details": "The ETH balance of the account is not enough to perform the operation."
        }
      ],
      "FailedInnerCall()": [
        {
          "details": "A call to an address target failed. The target may have reverted."
        }
      ],
      "OwnableInvalidOwner(address)": [
        {
          "details": "The owner is not a valid owner account. (eg. `address(0)`)"
        }
      ],
      "OwnableUnauthorizedAccount(address)": [
        {
          "details": "The caller account is not authorized to perform an operation."
        }
      ],
      "SafeERC20FailedOperation(address)": [
        {
          "details": "An operation with an ERC20 token failed."
        }
      ]
    },
    "kind": "dev",
    "methods": {
      "allowInitializePath((uint32,bytes32,uint64))": {
        "details": "This indicates to the endpoint that the OApp has enabled msgs for this particular path to be received.This defaults to assuming if a peer has been set, its initialized. Can be overridden by the OApp if there is other logic to determine this.",
        "params": {
          "origin": "The origin information containing the source endpoint and sender address."
        },
        "returns": {
          "_0": "Whether the path has been initialized."
        }
      },
      "isComposeMsgSender((uint32,bytes32,uint64),bytes,address)": {
        "details": "_origin The origin information containing the source endpoint and sender address.  - srcEid: The source chain endpoint ID.  - sender: The sender address on the src chain.  - nonce: The nonce of the message._message The lzReceive payload.Applications can optionally choose to implement separate composeMsg senders that are NOT the bridging layer.The default sender IS the OAppReceiver implementer.",
        "params": {
          "_sender": "The sender address."
        },
        "returns": {
          "_0": "isSender Is a valid sender."
        }
      },
      "lzReceive((uint32,bytes32,uint64),bytes32,bytes,address,bytes)": {
        "details": "Entry point for receiving messages or packets from the endpoint.Entry point for receiving msg/packet from the LayerZero endpoint.",
        "params": {
          "_executor": "The address of the executor for the received message.",
          "_extraData": "Additional arbitrary data provided by the corresponding executor.",
          "_guid": "The unique identifier for the received LayerZero message.",
          "_message": "The payload of the received message.",
          "_origin": "The origin information containing the source endpoint and sender address.  - srcEid: The source chain endpoint ID.  - sender: The sender address on the src chain.  - nonce: The nonce of the message."
        }
      },
      "nextNonce(uint32,bytes32)": {
        "details": "_srcEid The source endpoint ID._sender The sender address.The path nonce starts from 1. If 0 is returned it means that there is NO nonce ordered enforcement.Is required by the off-chain executor to determine the OApp expects msg execution is ordered.This is also enforced by the OApp.By default this is NOT enabled. ie. nextNonce is hardcoded to return 0.",
        "returns": {
          "nonce": "The next nonce."
        }
      },
      "oAppVersion()": {
        "returns": {
          "receiverVersion": "The version of the OAppReceiver.sol implementation.",
          "senderVersion": "The version of the OAppSender.sol implementation."
        }
      },
      "owner()": {
        "details": "Returns the address of the current owner."
      },
      "renounceOwnership()": {
        "details": "Leaves the contract without owner. It will not be possible to call `onlyOwner` functions. Can only be called by the current owner. NOTE: Renouncing ownership will leave the contract without an owner, thereby disabling any functionality that is only available to the owner."
      },
      "setDelegate(address)": {
        "details": "Only the owner/admin of the OApp can call this function.Provides the ability for a delegate to set configs, on behalf of the OApp, directly on the Endpoint contract.",
        "params": {
          "_delegate": "The address of the delegate to be set."
        }
      },
      "setPeer(uint32,bytes32)": {
        "details": "Only the owner/admin of the OApp can call this function.Indicates that the peer is trusted to send LayerZero messages to this OApp.Set this to bytes32(0) to remove the peer address.Peer is a bytes32 to accommodate non-evm chains.",
        "params": {
          "_eid": "The endpoint ID.",
          "_peer": "The address of the peer to be associated with the corresponding endpoint."
        }
      },
      "transferOwnership(address)": {
        "details": "Transfers ownership of the contract to a new account (`newOwner`). Can only be called by the current owner."
      }
    },
    "version": 1
  },
  "userdoc": {
    "kind": "user",
    "methods": {
      "allowInitializePath((uint32,bytes32,uint64))": {
        "notice": "Checks if the path initialization is allowed based on the provided origin."
      },
      "endpoint()": {
        "notice": "Retrieves the LayerZero endpoint associated with the OApp."
      },
      "isComposeMsgSender((uint32,bytes32,uint64),bytes,address)": {
        "notice": "Indicates whether an address is an approved composeMsg sender to the Endpoint."
      },
      "nextNonce(uint32,bytes32)": {
        "notice": "Retrieves the next nonce for a given source endpoint and sender address."
      },
      "oAppVersion()": {
        "notice": "Retrieves the OApp version information."
      },
      "peers(uint32)": {
        "notice": "Retrieves the peer (OApp) associated with a corresponding endpoint."
      },
      "setDelegate(address)": {
        "notice": "Sets the delegate address for the OApp."
      },
      "setPeer(uint32,bytes32)": {
        "notice": "Sets the peer address (OApp instance) for a corresponding endpoint."
      }
    },
    "version": 1
  },
  "storageLayout": {
    "storage": [
      {
        "astId": 1327,
        "contract": "contracts/SmartBridge.sol:SmartBridge",
        "label": "_owner",
        "offset": 0,
        "slot": "0",
        "type": "t_address"
      },
      {
        "astId": 785,
        "contract": "contracts/SmartBridge.sol:SmartBridge",
        "label": "peers",
        "offset": 0,
        "slot": "1",
        "type": "t_mapping(t_uint32,t_bytes32)"
      },
      {
        "astId": 2166,
        "contract": "contracts/SmartBridge.sol:SmartBridge",
        "label": "token",
        "offset": 0,
        "slot": "2",
        "type": "t_contract(IERC20)1544"
      },
      {
        "astId": 2169,
        "contract": "contracts/SmartBridge.sol:SmartBridge",
        "label": "destinationEndpointId",
        "offset": 20,
        "slot": "2",
        "type": "t_uint32"
      },
      {
        "astId": 2171,
        "contract": "contracts/SmartBridge.sol:SmartBridge",
        "label": "options",
        "offset": 0,
        "slot": "3",
        "type": "t_bytes_storage"
      },
      {
        "astId": 2316,
        "contract": "contracts/SmartBridge.sol:SmartBridge",
        "label": "liquidityProviders",
        "offset": 0,
        "slot": "4",
        "type": "t_mapping(t_address,t_uint256)"
      },
      {
        "astId": 2627,
        "contract": "contracts/SmartBridge.sol:SmartBridge",
        "label": "liquidityProvidersList",
        "offset": 0,
        "slot": "5",
        "type": "t_array(t_address)dyn_storage"
      }
    ],
    "types": {
      "t_address": {
        "encoding": "inplace",
        "label": "address",
        "numberOfBytes": "20"
      },
      "t_array(t_address)dyn_storage": {
        "base": "t_address",
        "encoding": "dynamic_array",
        "label": "address[]",
        "numberOfBytes": "32"
      },
      "t_bytes32": {
        "encoding": "inplace",
        "label": "bytes32",
        "numberOfBytes": "32"
      },
      "t_bytes_storage": {
        "encoding": "bytes",
        "label": "bytes",
        "numberOfBytes": "32"
      },
      "t_contract(IERC20)1544": {
        "encoding": "inplace",
        "label": "contract IERC20",
        "numberOfBytes": "20"
      },
      "t_mapping(t_address,t_uint256)": {
        "encoding": "mapping",
        "key": "t_address",
        "label": "mapping(address => uint256)",
        "numberOfBytes": "32",
        "value": "t_uint256"
      },
      "t_mapping(t_uint32,t_bytes32)": {
        "encoding": "mapping",
        "key": "t_uint32",
        "label": "mapping(uint32 => bytes32)",
        "numberOfBytes": "32",
        "value": "t_bytes32"
      },
      "t_uint256": {
        "encoding": "inplace",
        "label": "uint256",
        "numberOfBytes": "32"
      },
      "t_uint32": {
        "encoding": "inplace",
        "label": "uint32",
        "numberOfBytes": "4"
      }
    }
  }
}